{
  "contractName": "WhiteList",
  "abi": [
    {
      "inputs": [],
      "payable": false,
      "stateMutability": "nonpayable",
      "type": "constructor"
    },
    {
      "constant": true,
      "inputs": [
        {
          "internalType": "uint256",
          "name": "",
          "type": "uint256"
        }
      ],
      "name": "whitelist",
      "outputs": [
        {
          "internalType": "address",
          "name": "node",
          "type": "address"
        },
        {
          "internalType": "string",
          "name": "description",
          "type": "string"
        }
      ],
      "payable": false,
      "stateMutability": "view",
      "type": "function"
    },
    {
      "constant": false,
      "inputs": [
        {
          "internalType": "address",
          "name": "_address",
          "type": "address"
        },
        {
          "internalType": "string",
          "name": "_description",
          "type": "string"
        }
      ],
      "name": "addSigner",
      "outputs": [],
      "payable": false,
      "stateMutability": "nonpayable",
      "type": "function"
    },
    {
      "constant": true,
      "inputs": [],
      "name": "getWhiteListLength",
      "outputs": [
        {
          "internalType": "uint256",
          "name": "",
          "type": "uint256"
        }
      ],
      "payable": false,
      "stateMutability": "view",
      "type": "function"
    },
    {
      "constant": true,
      "inputs": [
        {
          "internalType": "uint256",
          "name": "i",
          "type": "uint256"
        }
      ],
      "name": "getWhiteNode",
      "outputs": [
        {
          "internalType": "address",
          "name": "",
          "type": "address"
        },
        {
          "internalType": "string",
          "name": "",
          "type": "string"
        }
      ],
      "payable": false,
      "stateMutability": "view",
      "type": "function"
    }
  ],
  "bytecode": "0x608060405234801561001057600080fd5b5060008054600160a060020a0319163317905561062e806100326000396000f3fe608060405234801561001057600080fd5b5060043610610068577c0100000000000000000000000000000000000000000000000000000000600035046343df339d811461006d5780637ebd1b3014610125578063bb72ce42146101d3578063ee95842d146101ed575b600080fd5b6101236004803603604081101561008357600080fd5b600160a060020a0382351691908101906040810160208201356401000000008111156100ae57600080fd5b8201836020820111156100c057600080fd5b803590602001918460018302840111640100000000831117156100e257600080fd5b91908080601f01602080910402602001604051908101604052809392919081815260200183838082843760009201919091525092955061020a945050505050565b005b6101426004803603602081101561013b57600080fd5b5035610332565b6040518083600160a060020a0316600160a060020a0316815260200180602001828103825283818151815260200191508051906020019080838360005b8381101561019757818101518382015260200161017f565b50505050905090810190601f1680156101c45780820380516001836020036101000a031916815260200191505b50935050505060405180910390f35b6101db6103f4565b60408051918252519081900360200190f35b6101426004803603602081101561020357600080fd5b50356103fb565b600054600160a060020a0316331461022157600080fd5b600160a060020a0382166000818152600160208181526040909220805473ffffffffffffffffffffffffffffffffffffffff19169093178355835161026c93909101918401906104ec565b50600160a060020a0380831660009081526001602081905260408220600280548084018083559482905282549082027f405787fa12a823e0f2b7631cc41b3ba8828b3321ca811111fa75cd3aa3bb5ace8101805473ffffffffffffffffffffffffffffffffffffffff191692909716919091178655828401805495969395939461032a947f405787fa12a823e0f2b7631cc41b3ba8828b3321ca811111fa75cd3aa3bb5acf909301939192908116156101000260001901160461056a565b505050505050565b6002818154811061033f57fe5b600091825260209182902060029182020180546001808301805460408051601f60001995841615610100029590950190921696909604928301879004870281018701909552818552600160a060020a03909216955091939091908301828280156103ea5780601f106103bf576101008083540402835291602001916103ea565b820191906000526020600020905b8154815290600101906020018083116103cd57829003601f168201915b5050505050905082565b6002545b90565b600060606002838154811061040c57fe5b60009182526020909120600291820201548154600160a060020a0390911691908590811061043657fe5b9060005260206000209060020201600101808054600181600116156101000203166002900480601f0160208091040260200160405190810160405280929190818152602001828054600181600116156101000203166002900480156104dc5780601f106104b1576101008083540402835291602001916104dc565b820191906000526020600020905b8154815290600101906020018083116104bf57829003601f168201915b5050505050905091509150915091565b828054600181600116156101000203166002900490600052602060002090601f016020900481019282601f1061052d57805160ff191683800117855561055a565b8280016001018555821561055a579182015b8281111561055a57825182559160200191906001019061053f565b506105669291506105df565b5090565b828054600181600116156101000203166002900490600052602060002090601f016020900481019282601f106105a3578054855561055a565b8280016001018555821561055a57600052602060002091601f016020900482015b8281111561055a5782548255916001019190600101906105c4565b6103f891905b8082111561056657600081556001016105e556fea265627a7a723158205620b5e724b24683b661898a5a76018437958962d2ffe1e19e961361230919ba64736f6c63430005100032",
  "source": "pragma solidity >=0.4.22 <0.8.0;\r\n\r\n/**\r\n * @title SetSigners\r\n * @dev Set & change owner\r\n */\r\n\r\ncontract WhiteList {\r\n    \r\n    address owner;\r\n\r\n    struct WhiteNode {\r\n        address node;\r\n        string description;\r\n    }\r\n\r\n    mapping(address => WhiteNode) whitenodes;\r\n    WhiteNode[] public whitelist;\r\n    \r\n    modifier onlyOwner {\r\n        require(msg.sender == owner);\r\n        _;\r\n    }\r\n    \r\n    constructor() public {\r\n        owner = msg.sender;\r\n    }\r\n    \r\n    \r\n    /** \r\n     * @dev Add a signer\r\n     * @param _address of signer\r\n     */ \r\n    function addSigner(address _address, string memory _description) public onlyOwner {\r\n        whitenodes[_address].node = _address;\r\n        whitenodes[_address].description = _description;\r\n        whitelist.push(whitenodes[_address]);\r\n    }\r\n\r\n    /** \r\n     * @dev Return whitelist's length\r\n     */\r\n    function getWhiteListLength() public view returns (uint){\r\n        return whitelist.length;\r\n    }\r\n\r\n    function getWhiteNode(uint i) public view returns (address, string memory) {\r\n        return (whitelist[i].node, whitelist[i].description);\r\n    }\r\n    \r\n}",
  "sourcePath": "C:/Users/Administrator/Desktop/Code/Stage/SetSigners/contracts/WhiteList.sol",
  "compiler": {
    "name": "solc",
    "version": "0.5.16+commit.9c3226ce.Emscripten.clang"
  },
  "schemaVersion": "3.0.22",
  "updatedAt": "2020-09-19T12:41:38.777Z",
  "networkType": "ethereum",
  "devdoc": {
    "details": "Set & change owner",
    "methods": {
      "addSigner(address,string)": {
        "details": "Add a signer",
        "params": {
          "_address": "of signer"
        }
      },
      "getWhiteListLength()": {
        "details": "Return whitelist's length"
      }
    },
    "title": "SetSigners"
  },
  "userdoc": {
    "methods": {}
  }
}